:10059600EF1FAC0670011E4C600A7D027CEFDCFE8C
:0405A600DDFC80EC0C
:0105AA00222E
:1005AB0012083F065B4F666D7D077F6F777C395E68
:0405BB00797100CF83
:10032600EF14B40800505490033B75F003A4C58342
:1003360025F0C5837302035302035702035B0203CE
:100346005F02036302036B02037302037BD2A48082
:100356000ED2A48012D2A48016D2A4801AC2A4D22D
:10036600A3D2A28016C2A4D2A3C2A2800EC2A4C2E5
:10037600A3D2A28006C2A4C2A3C2A274082DF8E624
:0D038600F5807F017E00120596E4F58022CF
:0605D400C2A58F80D2A732
:0805DA007F027EEFDEFEDFFC74
:0105E20022F6
:0A05E300C2A61205D4C2A70205DA71
:10052E00CFCDCFCECCCE1201D67C007D0A1201D615
:04053E00ED2430FF79
:0A054200D2A61205D4C2A70205DA02
:10058000AE07BE0104ED148006BE0209ED243F440F
:0605900080FF1205E322CA
:1005C0007F381205E37F0C1205E37F061205E37FF7
:0405D000010205E33C
:0A05ED00AC03120580AF04020542C2
:06050B008B1A8A1B891CFB
:10051100120580E4FDAB1AAA1BA91C8D827583000C
:0C052100120197FF60061205420D80E9F0
:01052D0022AB
:0C04D8007F0AEA24FFFDE434FFFC7E00F4
:0804E4008E1F8F208C218D2258
:1004EC007F017E00E4FBEBC39522E5216480F87468
:0E04FC008098500AAC1FAD201201C40B80E89E
:01050A0022CE
:04054C008A1C8B1D5D
:10055000120580AA1EEAD39400400D1204D8AC1CE8
:08056000AD1D12052E1A80EDFD
:010568002270
:10042D00120580C3EA64809480400B7F2B12054235
:10043D008A288B29800E7F2D120542C3E49BF52956
:10044D00E49AF528AA27EAD39400400D1204D8ACFB
:09045D0028AD2912052E1A80EDCC
:010466002273
:040467008A2C8B2D23
:10046B00120580AA2EEAD3940040297F101204DAD9
:10047B00AC2CAD2DCFCDCFCECCCE1201D6EF540FB1
:10048B00FEC3940AEE5004243080022437FF120579
:04049B00421A80D1B0
:01049F00223A
:0404A0008A318B32E0
:1004A400120580AA33EAD394004028EA24FFFDE42D
:1004B40034FFFC7F027E001204E4AC31AD32CFCDB8
:1004C400CFCECCCE1201D6EF54012430FF12054218
:0304D4001A80D2B9
:0104D7002202
:10000E00E4F53B7590FFC2932097137F14FE120503
:10001E00963097FD7F147E00120596753B01209653
:10002E00147F147E001205963096FD7F147E00120A
:10003E000596753B052095147F147E0012059630AB
:10004E0095FD7F147E00120596753B092094147F52
:10005E00147E001205963094FD7F147E00120596D4
:10006E00753B0D7590FFC2922097147F147E00127F
:10007E0005963097FD7F147E00120596753B022083
:10008E0096147F147E001205963096FD7F147E0026
:10009E00120596753B062095147F147E0012059668
:1000AE003095FD7F147E00120596753B0A20941440
:1000BE007F147E001205963094FD7F147E0012058B
:1000CE0096753B0E7590FFC2912097147F147E009B
:1000DE001205963097FD7F147E00120596753B0330
:1000EE002096147F147E001205963096FD7F147EA6
:1000FE0000120596753B072095147F147E0012059D
:10010E00963095FD7F147E00120596753B0B20945C
:10011E00147F147E001205963094FD7F147E00121B
:10012E000596753B0F7590FFC2902097147F147E35
:10013E00001205963097FD7F147E00120596753BD2
:10014E00042096147F147E001205963096FD7F14BF
:10015E007E00120596753B082095147F147E0012C2
:10016E0005963095FD7F147E00120596753B0C208A
:10017E0094147F147E001205963094FD7F147E0039
:08018E00120596753B10AF3B12
:010196002246
:100569005389F0438901758A18758CFCC28DD28C28
:07057900D2A9D2AFC2B922E2
:1002B700E4F539F53A20B1167F14FE12059630B1F0
:1002C700FD7F147E00120596753900753A0120B03E
:1002D700177F147E0012059630B0FD7F147E001242
:1002E7000596753900753A0220B2177F147E001201
:1002F700059630B2FD7F147E00120596753900759C
:100307003A0320B3177F147E0012059630B3FD7FA2
:0E031700147E00120596753900753A04AF3A4F
:0103250022B5
:0905F700434C4F434B3A003A001B
:100393001205C01205697BFF7A0579F77D017F019C
:1003A30012050B7BFF7A0579FE7D037F0212050B95
:1003B3007BFF7A0579FE7D067F0212050BE537FB8D
:1003C3007A00751E027D017F0212054CE538FB7A27
:1003D30000751E027D047F0212054CE536FB7A0090
:0C03E300751E027D077F0212054C80D1C0
:03000B000203EFFE
:0403EF00C0E0C0D0DA
:1003F300758A18758CFC0535E53570020534C39490
:10040300E8E5349403401E7534007535000536E580
:1004130036943C40100538753600E538943C400569
:050423007538000537EB
:05042800D0D0D0E0324D
:0300000002022BCE
:0C022B00787FE4F6D8FD75813B0202727A
:10019700BB010CE58229F582E5833AF583E022501D
:1001A70006E92582F8E622BBFE06E92582F8E22267
:0D01B700E58229F582E5833AF583E4932281
:1001C400EF8DF0A4A8F0CF8CF0A428CE8DF0A42E4F
:0201D400FE2209
:1001D600BC000BBE0029EF8DF084FFADF022E4CC0D
:1001E600F875F008EF2FFFEE33FEEC33FCEE9DECD6
:1001F600984005FCEE9DFE0FD5F0E9E4CEFD22ED1C
:10020600F8F5F0EE8420D21CFEADF075F008EF2F65
:10021600FFED33FD4007985006D5F0F222C398FD56
:050226000FD5F0EA22F3
:10023700020393E493A3F8E493A34003F68001F247
:1002470008DFF48029E493A3F85407240CC8C333C8
:10025700C4540F4420C8834004F456800146F6DF97
:10026700E4800B01020408102040809005ABE47E77
:10027700019360BCA3FF543F30E509541FFEE4938C
:10028700A360010ECF54C025E060A840B8E493A353
:10029700FAE493A3F8E493A3C8C582C8CAC583CA7E
:1002A700F0A3C8C582C8CAC583CADFE9DEE780BE36
:0105BF00003B
:00000001FF
