:10057000EF1FAC0670011E4C600A7D027CEFDCFEB2
:04058000DDFC80EC32
:010584002254
:1005850012083F065B4F666D7D077F6F777C395E8E
:04059500797100CFA9
:10032600EF14B40800505490033B75F003A4C58342
:1003360025F0C5837302035302035702035B0203CE
:100346005F02036302036B02037302037BD2A48082
:100356000ED2A48012D2A48016D2A4801AC2A4D22D
:10036600A3D2A28016C2A4D2A3C2A2800EC2A4C2E5
:10037600A3D2A28006C2A4C2A3C2A274082DF8E624
:0D038600F5807F017E00120570E4F58022F5
:0605AE00C2A58F80D2A758
:0805B4007F027EEFDEFEDFFC9A
:0105BC00221C
:0A05BD00C2A61205AEC2A70205B4E3
:10050800CFCDCFCECCCE1201D67C007D0A1201D63B
:04051800ED2430FF9F
:0A051C00D2A61205AEC2A70205B474
:10055A00AE07BE0104ED148006BE0209ED243F4435
:06056A0080FF1205BD2216
:10059A007F381205BD7F0C1205BD7F061205BD7F8F
:0405AA00010205BD88
:0A05C700AC0312055AAF0402051C34
:0604C5008B388A39893AE8
:1004CB0012055AE4FDAB38AA39A93A8D827583001F
:0C04DB00120197FF600612051C0D80E95D
:0104E70022F2
:0C0492007F0AEA24FFFDE434FFFC7E003A
:08049E008E308F318C328D335A
:1004A6007F017E00E4FBEBC39533E5326480F8748C
:0E04B6008098500AAC30AD311201C40B80E8C2
:0104C4002215
:040526008A238B2475
:10052A0012055AAA25EAD39400400D120492AC236C
:08053A00AD241205081A80ED42
:010542002296
:1003E70012055AC3EA64809480400B7F2B12051CC8
:1003F7008A1F8B20800E7F2D12051CC3E49BF520DE
:10040700E49AF51FAA1EEAD39400400D120492AC99
:090417001FAD201205081A80ED4A
:0104200022B9
:040421008A288B2971
:1004250012055AAA2AEAD3940040297F101204948F
:10043500AC28AD29CFCDCFCECCCE1201D6EF540FFF
:10044500FEC3940AEE5004243080022437FF1205BF
:040455001C1A80D11C
:010459002280
:04045A008A2D8B2E2E
:10045E0012055AAA2FEAD394004028EA24FFFDE49D
:10046E0034FFFC7F027E0012049EAC2DAD2ECFCD4C
:10047E00CFCECCCE1201D6EF54012430FF12051C84
:03048E001A80D2FF
:010491002248
:10000E00E4F53D7590FFC2932097137F14FE120501
:10001E00703097FD7F147E00120570753D0120969D
:10002E00147F147E001205703096FD7F147E001230
:10003E000570753D052095147F147E0012057030F5
:10004E0095FD7F147E00120570753D092094147F76
:10005E00147E001205703094FD7F147E0012057020
:10006E00753D0D7590FFC2922097147F147E00127D
:10007E0005703097FD7F147E00120570753D0220CD
:10008E0096147F147E001205703096FD7F147E004C
:10009E00120570753D062095147F147E00120570B2
:1000AE003095FD7F147E00120570753D0A20941464
:1000BE007F147E001205703094FD7F147E001205B1
:1000CE0070753D0E7590FFC2912097147F147E00BF
:1000DE001205703097FD7F147E00120570753D037A
:1000EE002096147F147E001205703096FD7F147ECC
:1000FE0000120570753D072095147F147E001205C1
:10010E00703095FD7F147E00120570753D0B2094A6
:10011E00147F147E001205703094FD7F147E001241
:10012E000570753D0F7590FFC2902097147F147E59
:10013E00001205703097FD7F147E00120570753D1C
:10014E00042096147F147E001205703096FD7F14E5
:10015E007E00120570753D082095147F147E0012E6
:10016E0005703095FD7F147E00120570753D0C20D4
:10017E0094147F147E001205703094FD7F147E005F
:08018E00120570753D10AF3D34
:010196002246
:100543005389F0438901758A18758CFCC28DD28C4E
:07055300D2A9D2AFC2B92208
:1002B700E4F53BF53C20B1167F14FE12057030B112
:1002C700FD7F147E00120570753B00753C0120B060
:1002D700177F147E0012057030B0FD7F147E001268
:1002E7000570753B00753C0220B2177F147E001223
:1002F700057030B2FD7F147E00120570753B0075E6
:100307003C0320B3177F147E0012057030B3FD7FC6
:0E031700147E00120570753B00753C04AF3C6F
:0103250022B5
:1004E80075A0FE1205431202B78F36E53660F7B4E1
:1004F80001F40537E537C3940240EBE4F53780E6AD
:03000B000203935A
:0B039300C0E0C0D075D000C000C00763
:10039E00758A18758CFC0535E53570020534C394E5
:1003AE00F4E53494014029753400753500E5377055
:1003BE000DAFA07801EF08800123D8FDF5A0E53739
:1003CE00B4010DAFA07801EF08800103D8FDF5A0B0
:0903DE00D007D000D0D0D0E032ED
:0300000002022BCE
:0C022B00787FE4F6D8FD75813D02027278
:10019700BB010CE58229F582E5833AF583E022501D
:1001A70006E92582F8E622BBFE06E92582F8E22267
:0D01B700E58229F582E5833AF583E4932281
:1001C400EF8DF0A4A8F0CF8CF0A428CE8DF0A42E4F
:0201D400FE2209
:1001D600BC000BBE0029EF8DF084FFADF022E4CC0D
:1001E600F875F008EF2FFFEE33FEEC33FCEE9DECD6
:1001F600984005FCEE9DFE0FD5F0E9E4CEFD22ED1C
:10020600F8F5F0EE8420D21CFEADF075F008EF2F65
:10021600FFED33FD4007985006D5F0F222C398FD56
:050226000FD5F0EA22F3
:100237000204E8E493A3F8E493A34003F68001F2F1
:1002470008DFF48029E493A3F85407240CC8C333C8
:10025700C4540F4420C8834004F456800146F6DF97
:10026700E4800B0102040810204080900585E47E9D
:10027700019360BCA3FF543F30E509541FFEE4938C
:10028700A360010ECF54C025E060A840B8E493A353
:10029700FAE493A3F8E493A3C8C582C8CAC583CA7E
:1002A700F0A3C8C582C8CAC583CADFE9DEE780BE36
:010599000061
:00000001FF
