:10053D00EF1FAC0670011E4C600A7D027CEFDCFEE5
:04054D00DDFC80EC65
:010551002287
:1005520012083F065B4F666D7D077F6F777C395EC1
:04056200797100CFDC
:10037E00EF14B40800505490039375F003A4C58392
:10038E0025F0C583730203AB0203AF0203B302036E
:10039E00B70203BB0203C30203CB0203D3D2A48072
:1003AE000ED2A48012D2A48016D2A4801AC2A4D2D5
:1003BE00A3D2A28016C2A4D2A3C2A2800EC2A4C28D
:1003CE00A3D2A28006C2A4C2A3C2A274082DF8E6CC
:0D03DE00F5807F017E0012053DE4F58022D0
:06059000C2A58F80D2A776
:080596007F027EEFDEFEDFFCB8
:01059E00223A
:0A059F00C2A6120590C2A70205963D
:1004EC00CFCDCFCECCCE12029D7C007D0A12029DC8
:0404FC00ED2430FFBC
:0A050000D2A6120590C2A7020596CC
:10052700AE07BE0104ED148006BE0209ED243F4468
:0605370080FF12059F2267
:10057C007F3812059F7F0C12059F7F0612059F7F07
:04058C000102059FC4
:0A05A900AC03120527AF04020500A1
:0604C9008B1A8A1B891C3E
:1004CF00120527E4FDAB1AAA1BA91C8D82758300A8
:0C04DF0012025EFF60061205000D80E9AD
:0104EB0022EE
:0C0496007F0AEA24FFFDE434FFFC7E0036
:0804A2008E1F8F208C218D229A
:1004AA007F017E00E4FBEBC39522E5216480F874AA
:0E04BA008098500AAC1FAD2012028B0B80E818
:0104C8002211
:04050A008A1C8B1D9F
:10050E00120527AA1EEAD39400400D120496AC1CC5
:08051E00AD1D1204EC1A80ED82
:0105260022B2
:1003EB00120527C3EA64809480400B7F2B12050013
:1003FB008A288B29800E7F2D120500C3E49BF529DB
:10040B00E49AF528AA27EAD39400400D120496AC7F
:09041B0028AD291204EC1A80ED51
:0104240022B5
:040425008A2C8B2D65
:10042900120527AA2EEAD3940040297F10120498B6
:10043900AC2CAD2DCFCDCFCECCCE12029DEF540F2B
:10044900FEC3940AEE5004243080022437FF1205BB
:04045900001A80D134
:01045D00227C
:04045E008A318B3222
:10046200120527AA33EAD394004028EA24FFFDE4C8
:1004720034FFFC7F027E001204A2AC31AD32CFCD3C
:10048200CFCECCCE12029DEF54012430FF120500D4
:030492001A80D2FB
:010495002244
:10000300E4F51A7590FFC2932097137F14FE12052F
:100013003D3097FD7F147E0012053D751A01209631
:10002300147F147E0012053D3096FD7F147E00126E
:10003300053D751A052095147F147E0012053D3089
:1000430095FD7F147E0012053D751A092094147FD7
:10005300147E0012053D3094FD7F147E0012053D91
:10006300751A0D7590FFC2922097147F147E0012AB
:10007300053D3097FD7F147E0012053D751A022061
:1000830096147F147E0012053D3096FD7F147E008A
:1000930012053D751A062095147F147E0012053D46
:1000A3003095FD7F147E0012053D751A0A209414C5
:1000B3007F147E0012053D3094FD7F147E001205EF
:1000C3003D751A0E7590FFC2912097147F147E0020
:1000D30012053D3097FD7F147E0012053D751A030E
:1000E3002096147F147E0012053D3096FD7F147E0A
:1000F3000012053D751A072095147F147E00120522
:100103003D3095FD7F147E0012053D751A0B20943A
:10011300147F147E0012053D3094FD7F147E00127F
:10012300053D751A0F7590FFC2902097147F147EBA
:100133000012053D3097FD7F147E0012053D751AB0
:10014300042096147F147E0012053D3096FD7F1423
:100153007E0012053D751A082095147F147E001247
:10016300053D3095FD7F147E0012053D751A0C2068
:1001730094147F147E0012053D3094FD7F147E009D
:0801830012053D751A10AF1AB8
:01018B002251
:1005670050617373576F7264004F4B2000455252AE
:0505770000434C4500AB
:10018C0012057C7BFF7A0579677D017F011204C91A
:10019C001200038F38E53860F7D3940A5041C3E559
:1001AC00359404E53494005028AE36AF377C007D8E
:1001BC000A12028B8E368F37E53875F00A84E5F01B
:1001CC002537F537E43536F5360535E53570020556
:1001DC0034751E04AB37AA367D017F0212050AE581
:1001EC0038640B703DE537B46214E536B4040F7B0C
:1001FC00FF7A0579707D0E7F011204C980247BFF84
:10020C007A0579747D0E7F011204C9E4F536F53751
:10021C00F534F535751E04AB37AA367D017F021215
:10022C00050AE538640C600302019C7BFF7A0579B2
:10023C00787D0E7F011204C9E4F536F537F534F5F7
:10024C0035751E04AB37AA367D017F0212050A02F2
:02025C00019C03
:030000000202F207
:0C02F200787FE4F6D8FD758138020339EE
:10025E00BB010CE58229F582E5833AF583E0225055
:10026E0006E92582F8E622BBFE06E92582F8E2229F
:0D027E00E58229F582E5833AF583E49322B9
:10028B00EF8DF0A4A8F0CF8CF0A428CE8DF0A42E87
:02029B00FE2241
:10029D00BC000BBE0029EF8DF084FFADF022E4CC45
:1002AD00F875F008EF2FFFEE33FEEC33FCEE9DEC0E
:1002BD00984005FCEE9DFE0FD5F0E9E4CEFD22ED54
:1002CD00F8F5F0EE8420D21CFEADF075F008EF2F9E
:1002DD00FFED33FD4007985006D5F0F222C398FD8F
:0502ED000FD5F0EA222C
:1002FE0002018CE493A3F8E493A34003F68001F289
:10030E0008DFF48029E493A3F85407240CC8C33300
:10031E00C4540F4420C8834004F456800146F6DFCF
:10032E00E4800B0102040810204080900552E47E08
:10033E00019360BCA3FF543F30E509541FFEE493C4
:10034E00A360010ECF54C025E060A840B8E493A38B
:10035E00FAE493A3F8E493A3C8C582C8CAC583CAB6
:10036E00F0A3C8C582C8CAC583CADFE9DEE780BE6E
:010566000094
:00000001FF
